{
  "contractName": "DeliveryTracker",
  "abi": [
    {
      "anonymous": false,
      "inputs": [
        {
          "indexed": false,
          "internalType": "uint256",
          "name": "orderId",
          "type": "uint256"
        },
        {
          "indexed": false,
          "internalType": "address",
          "name": "store",
          "type": "address"
        },
        {
          "indexed": false,
          "internalType": "string",
          "name": "recipientAddress",
          "type": "string"
        },
        {
          "indexed": false,
          "internalType": "string",
          "name": "recipientPhone",
          "type": "string"
        }
      ],
      "name": "OrderCreated",
      "type": "event"
    },
    {
      "anonymous": false,
      "inputs": [
        {
          "indexed": false,
          "internalType": "uint256",
          "name": "orderId",
          "type": "uint256"
        }
      ],
      "name": "OrderDelivered",
      "type": "event"
    },
    {
      "anonymous": false,
      "inputs": [
        {
          "indexed": false,
          "internalType": "uint256",
          "name": "orderId",
          "type": "uint256"
        },
        {
          "indexed": false,
          "internalType": "address",
          "name": "deliveryPerson",
          "type": "address"
        }
      ],
      "name": "OrderPickedUp",
      "type": "event"
    },
    {
      "inputs": [],
      "name": "nextOrderId",
      "outputs": [
        {
          "internalType": "uint256",
          "name": "",
          "type": "uint256"
        }
      ],
      "stateMutability": "view",
      "type": "function",
      "constant": true
    },
    {
      "inputs": [
        {
          "internalType": "uint256",
          "name": "",
          "type": "uint256"
        }
      ],
      "name": "orders",
      "outputs": [
        {
          "internalType": "uint256",
          "name": "id",
          "type": "uint256"
        },
        {
          "internalType": "address",
          "name": "store",
          "type": "address"
        },
        {
          "internalType": "address",
          "name": "deliveryPerson",
          "type": "address"
        },
        {
          "internalType": "string",
          "name": "recipientAddress",
          "type": "string"
        },
        {
          "internalType": "string",
          "name": "recipientPhone",
          "type": "string"
        },
        {
          "internalType": "enum DeliveryTracker.OrderStatus",
          "name": "status",
          "type": "uint8"
        }
      ],
      "stateMutability": "view",
      "type": "function",
      "constant": true
    },
    {
      "inputs": [
        {
          "internalType": "string[]",
          "name": "itemNames",
          "type": "string[]"
        },
        {
          "internalType": "uint256[]",
          "name": "itemQuantities",
          "type": "uint256[]"
        },
        {
          "internalType": "string",
          "name": "recipientAddress",
          "type": "string"
        },
        {
          "internalType": "string",
          "name": "recipientPhone",
          "type": "string"
        }
      ],
      "name": "createOrder",
      "outputs": [],
      "stateMutability": "nonpayable",
      "type": "function"
    },
    {
      "inputs": [
        {
          "internalType": "uint256",
          "name": "orderId",
          "type": "uint256"
        }
      ],
      "name": "pickUpOrder",
      "outputs": [],
      "stateMutability": "nonpayable",
      "type": "function"
    },
    {
      "inputs": [
        {
          "internalType": "uint256",
          "name": "orderId",
          "type": "uint256"
        }
      ],
      "name": "confirmDelivery",
      "outputs": [],
      "stateMutability": "nonpayable",
      "type": "function"
    }
  ],
  "bytecode": "0x608060405234801561001057600080fd5b506112b9806100206000396000f3fe608060405234801561001057600080fd5b50600436106100575760003560e01c80632a58b3301461005c578063a85c38ef1461007a578063a9961e44146100af578063aef7a4a2146100cb578063fd84cb97146100e7575b600080fd5b610064610103565b6040516100719190610e92565b60405180910390f35b610094600480360381019061008f9190610c5d565b610109565b6040516100a696959493929190610ed6565b60405180910390f35b6100c960048036038101906100c49190610c5d565b6102a2565b005b6100e560048036038101906100e09190610b9a565b61046b565b005b61010160048036038101906100fc9190610c5d565b610747565b005b60015481565b60006020528060005260406000206000915090508060000154908060010160009054906101000a900473ffffffffffffffffffffffffffffffffffffffff16908060020160009054906101000a900473ffffffffffffffffffffffffffffffffffffffff169080600301805461017e90611110565b80601f01602080910402602001604051908101604052809291908181526020018280546101aa90611110565b80156101f75780601f106101cc576101008083540402835291602001916101f7565b820191906000526020600020905b8154815290600101906020018083116101da57829003601f168201915b50505050509080600401805461020c90611110565b80601f016020809104026020016040519081016040528092919081815260200182805461023890611110565b80156102855780601f1061025a57610100808354040283529160200191610285565b820191906000526020600020905b81548152906001019060200180831161026857829003601f168201915b5050505050908060050160009054906101000a900460ff16905086565b600060028111156102dc577f4e487b7100000000000000000000000000000000000000000000000000000000600052602160045260246000fd5b60008083815260200190815260200160002060050160009054906101000a900460ff166002811115610337577f4e487b7100000000000000000000000000000000000000000000000000000000600052602160045260246000fd5b14610377576040517f08c379a000000000000000000000000000000000000000000000000000000000815260040161036e90610e72565b60405180910390fd5b3360008083815260200190815260200160002060020160006101000a81548173ffffffffffffffffffffffffffffffffffffffff021916908373ffffffffffffffffffffffffffffffffffffffff160217905550600160008083815260200190815260200160002060050160006101000a81548160ff0219169083600281111561042a577f4e487b7100000000000000000000000000000000000000000000000000000000600052602160045260246000fd5b02179055507ffaa6d263155ad2b3a9b94b8d4bb899d5f4d0a42bf84ecab4554d1259ea5c99cb8133604051610460929190610ead565b60405180910390a150565b82518451146104af576040517f08c379a00000000000000000000000000000000000000000000000000000000081526004016104a690610e12565b60405180910390fd5b6000806000600154815260200190815260200160002090506001548160000181905550338160010160006101000a81548173ffffffffffffffffffffffffffffffffffffffff021916908373ffffffffffffffffffffffffffffffffffffffff16021790555060008160020160006101000a81548173ffffffffffffffffffffffffffffffffffffffff021916908373ffffffffffffffffffffffffffffffffffffffff1602179055508281600301908051906020019061057192919061095d565b508181600401908051906020019061058a92919061095d565b5060008160050160006101000a81548160ff021916908360028111156105d9577f4e487b7100000000000000000000000000000000000000000000000000000000600052602160045260246000fd5b021790555060005b85518110156106e857816006016040518060400160405280888481518110610632577f4e487b7100000000000000000000000000000000000000000000000000000000600052603260045260246000fd5b60200260200101518152602001878481518110610678577f4e487b7100000000000000000000000000000000000000000000000000000000600052603260045260246000fd5b6020026020010151815250908060018154018082558091505060019003906000526020600020906002020160009091909190915060008201518160000190805190602001906106c892919061095d565b5060208201518160010155505080806106e090611142565b9150506105e1565b507fcf103a0a6baf1e1a8a86aeaabb30e98395ea5395118c287123c594b3f8deb07b6001543385856040516107209493929190610f45565b60405180910390a16001600081548092919061073b90611142565b91905055505050505050565b3373ffffffffffffffffffffffffffffffffffffffff1660008083815260200190815260200160002060020160009054906101000a900473ffffffffffffffffffffffffffffffffffffffff1673ffffffffffffffffffffffffffffffffffffffff16146107ea576040517f08c379a00000000000000000000000000000000000000000000000000000000081526004016107e190610e32565b60405180910390fd5b60016002811115610824577f4e487b7100000000000000000000000000000000000000000000000000000000600052602160045260246000fd5b60008083815260200190815260200160002060050160009054906101000a900460ff16600281111561087f577f4e487b7100000000000000000000000000000000000000000000000000000000600052602160045260246000fd5b146108bf576040517f08c379a00000000000000000000000000000000000000000000000000000000081526004016108b690610e52565b60405180910390fd5b600260008083815260200190815260200160002060050160006101000a81548160ff0219169083600281111561091e577f4e487b7100000000000000000000000000000000000000000000000000000000600052602160045260246000fd5b02179055507fe21fe02c1589242b30be2057f54fd54b7ddc463695d19ffdb54f9ebb0584f24a816040516109529190610e92565b60405180910390a150565b82805461096990611110565b90600052602060002090601f01602090048101928261098b57600085556109d2565b82601f106109a457805160ff19168380011785556109d2565b828001600101855582156109d2579182015b828111156109d15782518255916020019190600101906109b6565b5b5090506109df91906109e3565b5090565b5b808211156109fc5760008160009055506001016109e4565b5090565b6000610a13610a0e84610fc9565b610f98565b9050808382526020820190508260005b85811015610a535781358501610a398882610b5b565b845260208401935060208301925050600181019050610a23565b5050509392505050565b6000610a70610a6b84610ff5565b610f98565b90508083825260208201905082856020860282011115610a8f57600080fd5b60005b85811015610abf5781610aa58882610b85565b845260208401935060208301925050600181019050610a92565b5050509392505050565b6000610adc610ad784611021565b610f98565b905082815260208101848484011115610af457600080fd5b610aff8482856110ce565b509392505050565b600082601f830112610b1857600080fd5b8135610b28848260208601610a00565b91505092915050565b600082601f830112610b4257600080fd5b8135610b52848260208601610a5d565b91505092915050565b600082601f830112610b6c57600080fd5b8135610b7c848260208601610ac9565b91505092915050565b600081359050610b948161126c565b92915050565b60008060008060808587031215610bb057600080fd5b600085013567ffffffffffffffff811115610bca57600080fd5b610bd687828801610b07565b945050602085013567ffffffffffffffff811115610bf357600080fd5b610bff87828801610b31565b935050604085013567ffffffffffffffff811115610c1c57600080fd5b610c2887828801610b5b565b925050606085013567ffffffffffffffff811115610c4557600080fd5b610c5187828801610b5b565b91505092959194509250565b600060208284031215610c6f57600080fd5b6000610c7d84828501610b85565b91505092915050565b610c8f8161106d565b82525050565b610c9e816110bc565b82525050565b6000610caf82611051565b610cb9818561105c565b9350610cc98185602086016110dd565b610cd281611247565b840191505092915050565b6000610cea601f8361105c565b91507f4d69736d617463686564206974656d7320616e64207175616e746974696573006000830152602082019050919050565b6000610d2a60328361105c565b91507f4f6e6c792061737369676e65642064656c697665727920706572736f6e20636160008301527f6e20636f6e6669726d2064656c697665727900000000000000000000000000006020830152604082019050919050565b6000610d9060178361105c565b91507f4f72646572206973206e6f7420696e207472616e7369740000000000000000006000830152602082019050919050565b6000610dd0601e8361105c565b91507f4f72646572206e6f7420617661696c61626c6520666f72207069636b757000006000830152602082019050919050565b610e0c816110b2565b82525050565b60006020820190508181036000830152610e2b81610cdd565b9050919050565b60006020820190508181036000830152610e4b81610d1d565b9050919050565b60006020820190508181036000830152610e6b81610d83565b9050919050565b60006020820190508181036000830152610e8b81610dc3565b9050919050565b6000602082019050610ea76000830184610e03565b92915050565b6000604082019050610ec26000830185610e03565b610ecf6020830184610c86565b9392505050565b600060c082019050610eeb6000830189610e03565b610ef86020830188610c86565b610f056040830187610c86565b8181036060830152610f178186610ca4565b90508181036080830152610f2b8185610ca4565b9050610f3a60a0830184610c95565b979650505050505050565b6000608082019050610f5a6000830187610e03565b610f676020830186610c86565b8181036040830152610f798185610ca4565b90508181036060830152610f8d8184610ca4565b905095945050505050565b6000604051905081810181811067ffffffffffffffff82111715610fbf57610fbe611218565b5b8060405250919050565b600067ffffffffffffffff821115610fe457610fe3611218565b5b602082029050602081019050919050565b600067ffffffffffffffff8211156110105761100f611218565b5b602082029050602081019050919050565b600067ffffffffffffffff82111561103c5761103b611218565b5b601f19601f8301169050602081019050919050565b600081519050919050565b600082825260208201905092915050565b600061107882611092565b9050919050565b600081905061108d82611258565b919050565b600073ffffffffffffffffffffffffffffffffffffffff82169050919050565b6000819050919050565b60006110c78261107f565b9050919050565b82818337600083830152505050565b60005b838110156110fb5780820151818401526020810190506110e0565b8381111561110a576000848401525b50505050565b6000600282049050600182168061112857607f821691505b6020821081141561113c5761113b6111e9565b5b50919050565b600061114d826110b2565b91507fffffffffffffffffffffffffffffffffffffffffffffffffffffffffffffffff8214156111805761117f61118b565b5b600182019050919050565b7f4e487b7100000000000000000000000000000000000000000000000000000000600052601160045260246000fd5b7f4e487b7100000000000000000000000000000000000000000000000000000000600052602160045260246000fd5b7f4e487b7100000000000000000000000000000000000000000000000000000000600052602260045260246000fd5b7f4e487b7100000000000000000000000000000000000000000000000000000000600052604160045260246000fd5b6000601f19601f8301169050919050565b60038110611269576112686111ba565b5b50565b611275816110b2565b811461128057600080fd5b5056fea2646970667358221220f9c9c022d309dbdb5348b65290271494e9a0f3e10bcdadf4493ed968deae190364736f6c63430008000033",
  "immutableReferences": {},
  "source": "// SPDX-License-Identifier: MIT\r\npragma solidity ^0.8.0;\r\n\r\ncontract DeliveryTracker {\r\n    enum OrderStatus { Created, InTransit, Delivered }\r\n\r\n    struct Item {\r\n        string name;\r\n        uint256 quantity;\r\n    }\r\n\r\n    struct Order {\r\n        uint256 id;\r\n        address store;\r\n        address deliveryPerson;\r\n        string recipientAddress;\r\n        string recipientPhone;\r\n        OrderStatus status;\r\n        Item[] items;\r\n    }\r\n\r\n    mapping(uint256 => Order) public orders;\r\n    uint256 public nextOrderId;\r\n\r\n    event OrderCreated(uint256 orderId, address store, string recipientAddress, string recipientPhone);\r\n    event OrderPickedUp(uint256 orderId, address deliveryPerson);\r\n    event OrderDelivered(uint256 orderId);\r\n\r\n    function createOrder(\r\n        string[] memory itemNames, \r\n        uint256[] memory itemQuantities, \r\n        string memory recipientAddress, \r\n        string memory recipientPhone\r\n    ) external {\r\n        require(itemNames.length == itemQuantities.length, \"Mismatched items and quantities\");\r\n\r\n        Order storage newOrder = orders[nextOrderId];\r\n        newOrder.id = nextOrderId;\r\n        newOrder.store = msg.sender;\r\n        newOrder.deliveryPerson = address(0);\r\n        newOrder.recipientAddress = recipientAddress;\r\n        newOrder.recipientPhone = recipientPhone;\r\n        newOrder.status = OrderStatus.Created;\r\n\r\n        for (uint256 i = 0; i < itemNames.length; i++) {\r\n            newOrder.items.push(Item(itemNames[i], itemQuantities[i]));\r\n        }\r\n\r\n        emit OrderCreated(nextOrderId, msg.sender, recipientAddress, recipientPhone);\r\n        nextOrderId++;\r\n    }\r\n\r\n        function pickUpOrder(uint256 orderId) external {\r\n        require(orders[orderId].status == OrderStatus.Created, \"Order not available for pickup\");\r\n        orders[orderId].deliveryPerson = msg.sender;\r\n        orders[orderId].status = OrderStatus.InTransit;\r\n        emit OrderPickedUp(orderId, msg.sender);\r\n    }\r\n\r\n    function confirmDelivery(uint256 orderId) external {\r\n        require(orders[orderId].deliveryPerson == msg.sender, \"Only assigned delivery person can confirm delivery\");\r\n        require(orders[orderId].status == OrderStatus.InTransit, \"Order is not in transit\");\r\n        orders[orderId].status = OrderStatus.Delivered;\r\n        emit OrderDelivered(orderId);\r\n    }\r\n}\r\n\r\n",
  "sourcePath": "D:\\CNCK\\delivery-trackingtest\\contracts\\DeliveryTracker.sol",
  "compiler": {
    "name": "solc",
    "version": "0.8.0+commit.c7dfd78e.Emscripten.clang"
  },
  "schemaVersion": "3.4.16",
  "updatedAt": "2025-03-16T10:48:45.454Z",
  "networkType": "ethereum",
  "devdoc": {
    "kind": "dev",
    "methods": {},
    "version": 1
  },
  "userdoc": {
    "kind": "user",
    "methods": {},
    "version": 1
  }
}