{
  "contractName": "DeliveryTracker",
  "abi": [
    {
      "anonymous": false,
      "inputs": [
        {
          "indexed": false,
          "internalType": "uint256",
          "name": "orderId",
          "type": "uint256"
        },
        {
          "indexed": false,
          "internalType": "address",
          "name": "store",
          "type": "address"
        }
      ],
      "name": "OrderCreated",
      "type": "event"
    },
    {
      "anonymous": false,
      "inputs": [
        {
          "indexed": false,
          "internalType": "uint256",
          "name": "orderId",
          "type": "uint256"
        }
      ],
      "name": "OrderDelivered",
      "type": "event"
    },
    {
      "anonymous": false,
      "inputs": [
        {
          "indexed": false,
          "internalType": "uint256",
          "name": "orderId",
          "type": "uint256"
        },
        {
          "indexed": false,
          "internalType": "address",
          "name": "deliveryPerson",
          "type": "address"
        }
      ],
      "name": "OrderPickedUp",
      "type": "event"
    },
    {
      "inputs": [],
      "name": "nextOrderId",
      "outputs": [
        {
          "internalType": "uint256",
          "name": "",
          "type": "uint256"
        }
      ],
      "stateMutability": "view",
      "type": "function",
      "constant": true
    },
    {
      "inputs": [
        {
          "internalType": "uint256",
          "name": "",
          "type": "uint256"
        }
      ],
      "name": "orders",
      "outputs": [
        {
          "internalType": "uint256",
          "name": "id",
          "type": "uint256"
        },
        {
          "internalType": "address",
          "name": "store",
          "type": "address"
        },
        {
          "internalType": "address",
          "name": "deliveryPerson",
          "type": "address"
        },
        {
          "internalType": "enum DeliveryTracker.OrderStatus",
          "name": "status",
          "type": "uint8"
        }
      ],
      "stateMutability": "view",
      "type": "function",
      "constant": true
    },
    {
      "inputs": [
        {
          "internalType": "string[]",
          "name": "itemNames",
          "type": "string[]"
        },
        {
          "internalType": "uint256[]",
          "name": "itemQuantities",
          "type": "uint256[]"
        }
      ],
      "name": "createOrder",
      "outputs": [],
      "stateMutability": "nonpayable",
      "type": "function"
    },
    {
      "inputs": [
        {
          "internalType": "uint256",
          "name": "orderId",
          "type": "uint256"
        }
      ],
      "name": "pickUpOrder",
      "outputs": [],
      "stateMutability": "nonpayable",
      "type": "function"
    },
    {
      "inputs": [
        {
          "internalType": "uint256",
          "name": "orderId",
          "type": "uint256"
        }
      ],
      "name": "confirmDelivery",
      "outputs": [],
      "stateMutability": "nonpayable",
      "type": "function"
    }
  ],
  "bytecode": "0x608060405234801561001057600080fd5b50611007806100206000396000f3fe608060405234801561001057600080fd5b50600436106100575760003560e01c80632a58b3301461005c578063433d9a961461007a578063a85c38ef14610096578063a9961e44146100c9578063fd84cb97146100e5575b600080fd5b610064610101565b6040516100719190610cac565b60405180910390f35b610094600480360381019061008f9190610a44565b610107565b005b6100b060048036038101906100ab9190610ab0565b6103ab565b6040516100c09493929190610cf0565b60405180910390f35b6100e360048036038101906100de9190610ab0565b610428565b005b6100ff60048036038101906100fa9190610ab0565b6105f1565b005b60015481565b805182511461014b576040517f08c379a000000000000000000000000000000000000000000000000000000000815260040161014290610c2c565b60405180910390fd5b6000806000600154815260200190815260200160002090506001548160000181905550338160010160006101000a81548173ffffffffffffffffffffffffffffffffffffffff021916908373ffffffffffffffffffffffffffffffffffffffff16021790555060008160020160006101000a81548173ffffffffffffffffffffffffffffffffffffffff021916908373ffffffffffffffffffffffffffffffffffffffff16021790555060008160020160146101000a81548160ff02191690836002811115610243577f4e487b7100000000000000000000000000000000000000000000000000000000600052602160045260246000fd5b021790555060005b83518110156103525781600301604051806040016040528086848151811061029c577f4e487b7100000000000000000000000000000000000000000000000000000000600052603260045260246000fd5b602002602001015181526020018584815181106102e2577f4e487b7100000000000000000000000000000000000000000000000000000000600052603260045260246000fd5b602002602001015181525090806001815401808255809150506001900390600052602060002090600202016000909190919091506000820151816000019080519060200190610332929190610807565b50602082015181600101555050808061034a90610ea1565b91505061024b565b507f4ceaea0569072c9203c8c195ffccdbca9851b9d0410f577878a6792f12ec9b5260015433604051610386929190610cc7565b60405180910390a1600160008154809291906103a190610ea1565b9190505550505050565b60006020528060005260406000206000915090508060000154908060010160009054906101000a900473ffffffffffffffffffffffffffffffffffffffff16908060020160009054906101000a900473ffffffffffffffffffffffffffffffffffffffff16908060020160149054906101000a900460ff16905084565b60006002811115610462577f4e487b7100000000000000000000000000000000000000000000000000000000600052602160045260246000fd5b60008083815260200190815260200160002060020160149054906101000a900460ff1660028111156104bd577f4e487b7100000000000000000000000000000000000000000000000000000000600052602160045260246000fd5b146104fd576040517f08c379a00000000000000000000000000000000000000000000000000000000081526004016104f490610c8c565b60405180910390fd5b3360008083815260200190815260200160002060020160006101000a81548173ffffffffffffffffffffffffffffffffffffffff021916908373ffffffffffffffffffffffffffffffffffffffff160217905550600160008083815260200190815260200160002060020160146101000a81548160ff021916908360028111156105b0577f4e487b7100000000000000000000000000000000000000000000000000000000600052602160045260246000fd5b02179055507ffaa6d263155ad2b3a9b94b8d4bb899d5f4d0a42bf84ecab4554d1259ea5c99cb81336040516105e6929190610cc7565b60405180910390a150565b3373ffffffffffffffffffffffffffffffffffffffff1660008083815260200190815260200160002060020160009054906101000a900473ffffffffffffffffffffffffffffffffffffffff1673ffffffffffffffffffffffffffffffffffffffff1614610694576040517f08c379a000000000000000000000000000000000000000000000000000000000815260040161068b90610c4c565b60405180910390fd5b600160028111156106ce577f4e487b7100000000000000000000000000000000000000000000000000000000600052602160045260246000fd5b60008083815260200190815260200160002060020160149054906101000a900460ff166002811115610729577f4e487b7100000000000000000000000000000000000000000000000000000000600052602160045260246000fd5b14610769576040517f08c379a000000000000000000000000000000000000000000000000000000000815260040161076090610c6c565b60405180910390fd5b600260008083815260200190815260200160002060020160146101000a81548160ff021916908360028111156107c8577f4e487b7100000000000000000000000000000000000000000000000000000000600052602160045260246000fd5b02179055507fe21fe02c1589242b30be2057f54fd54b7ddc463695d19ffdb54f9ebb0584f24a816040516107fc9190610cac565b60405180910390a150565b82805461081390610e6f565b90600052602060002090601f016020900481019282610835576000855561087c565b82601f1061084e57805160ff191683800117855561087c565b8280016001018555821561087c579182015b8281111561087b578251825591602001919060010190610860565b5b509050610889919061088d565b5090565b5b808211156108a657600081600090555060010161088e565b5090565b60006108bd6108b884610d66565b610d35565b9050808382526020820190508260005b858110156108fd57813585016108e38882610a05565b8452602084019350602083019250506001810190506108cd565b5050509392505050565b600061091a61091584610d92565b610d35565b9050808382526020820190508285602086028201111561093957600080fd5b60005b85811015610969578161094f8882610a2f565b84526020840193506020830192505060018101905061093c565b5050509392505050565b600061098661098184610dbe565b610d35565b90508281526020810184848401111561099e57600080fd5b6109a9848285610e60565b509392505050565b600082601f8301126109c257600080fd5b81356109d28482602086016108aa565b91505092915050565b600082601f8301126109ec57600080fd5b81356109fc848260208601610907565b91505092915050565b600082601f830112610a1657600080fd5b8135610a26848260208601610973565b91505092915050565b600081359050610a3e81610fba565b92915050565b60008060408385031215610a5757600080fd5b600083013567ffffffffffffffff811115610a7157600080fd5b610a7d858286016109b1565b925050602083013567ffffffffffffffff811115610a9a57600080fd5b610aa6858286016109db565b9150509250929050565b600060208284031215610ac257600080fd5b6000610ad084828501610a2f565b91505092915050565b610ae281610dff565b82525050565b610af181610e4e565b82525050565b6000610b04601f83610dee565b91507f4d69736d617463686564206974656d7320616e64207175616e746974696573006000830152602082019050919050565b6000610b44603283610dee565b91507f4f6e6c792061737369676e65642064656c697665727920706572736f6e20636160008301527f6e20636f6e6669726d2064656c697665727900000000000000000000000000006020830152604082019050919050565b6000610baa601783610dee565b91507f4f72646572206973206e6f7420696e207472616e7369740000000000000000006000830152602082019050919050565b6000610bea601e83610dee565b91507f4f72646572206e6f7420617661696c61626c6520666f72207069636b757000006000830152602082019050919050565b610c2681610e44565b82525050565b60006020820190508181036000830152610c4581610af7565b9050919050565b60006020820190508181036000830152610c6581610b37565b9050919050565b60006020820190508181036000830152610c8581610b9d565b9050919050565b60006020820190508181036000830152610ca581610bdd565b9050919050565b6000602082019050610cc16000830184610c1d565b92915050565b6000604082019050610cdc6000830185610c1d565b610ce96020830184610ad9565b9392505050565b6000608082019050610d056000830187610c1d565b610d126020830186610ad9565b610d1f6040830185610ad9565b610d2c6060830184610ae8565b95945050505050565b6000604051905081810181811067ffffffffffffffff82111715610d5c57610d5b610f77565b5b8060405250919050565b600067ffffffffffffffff821115610d8157610d80610f77565b5b602082029050602081019050919050565b600067ffffffffffffffff821115610dad57610dac610f77565b5b602082029050602081019050919050565b600067ffffffffffffffff821115610dd957610dd8610f77565b5b601f19601f8301169050602081019050919050565b600082825260208201905092915050565b6000610e0a82610e24565b9050919050565b6000819050610e1f82610fa6565b919050565b600073ffffffffffffffffffffffffffffffffffffffff82169050919050565b6000819050919050565b6000610e5982610e11565b9050919050565b82818337600083830152505050565b60006002820490506001821680610e8757607f821691505b60208210811415610e9b57610e9a610f48565b5b50919050565b6000610eac82610e44565b91507fffffffffffffffffffffffffffffffffffffffffffffffffffffffffffffffff821415610edf57610ede610eea565b5b600182019050919050565b7f4e487b7100000000000000000000000000000000000000000000000000000000600052601160045260246000fd5b7f4e487b7100000000000000000000000000000000000000000000000000000000600052602160045260246000fd5b7f4e487b7100000000000000000000000000000000000000000000000000000000600052602260045260246000fd5b7f4e487b7100000000000000000000000000000000000000000000000000000000600052604160045260246000fd5b60038110610fb757610fb6610f19565b5b50565b610fc381610e44565b8114610fce57600080fd5b5056fea2646970667358221220283d9be7144ba370da8ae605c42c5edd2d33b3ab900421e5ae4131e0581be8d664736f6c63430008000033",
  "immutableReferences": {},
  "source": "// SPDX-License-Identifier: MIT\r\npragma solidity ^0.8.0;\r\n\r\ncontract DeliveryTracker {\r\n    enum OrderStatus { Created, InTransit, Delivered }\r\n\r\n    struct Item {\r\n        string name;\r\n        uint256 quantity;\r\n    }\r\n\r\n    struct Order {\r\n        uint256 id;\r\n        address store;\r\n        address deliveryPerson;\r\n        OrderStatus status;\r\n        Item[] items;\r\n    }\r\n\r\n    mapping(uint256 => Order) public orders;\r\n    uint256 public nextOrderId;\r\n\r\n    event OrderCreated(uint256 orderId, address store);\r\n    event OrderPickedUp(uint256 orderId, address deliveryPerson);\r\n    event OrderDelivered(uint256 orderId);\r\n\r\n    function createOrder(string[] memory itemNames, uint256[] memory itemQuantities) external {\r\n        require(itemNames.length == itemQuantities.length, \"Mismatched items and quantities\");\r\n\r\n        Order storage newOrder = orders[nextOrderId];\r\n        newOrder.id = nextOrderId;\r\n        newOrder.store = msg.sender;\r\n        newOrder.deliveryPerson = address(0);\r\n        newOrder.status = OrderStatus.Created;\r\n\r\n        for (uint256 i = 0; i < itemNames.length; i++) {\r\n            newOrder.items.push(Item(itemNames[i], itemQuantities[i]));\r\n        }\r\n\r\n        emit OrderCreated(nextOrderId, msg.sender);\r\n        nextOrderId++;\r\n    }\r\n\r\n    function pickUpOrder(uint256 orderId) external {\r\n        require(orders[orderId].status == OrderStatus.Created, \"Order not available for pickup\");\r\n        orders[orderId].deliveryPerson = msg.sender;\r\n        orders[orderId].status = OrderStatus.InTransit;\r\n        emit OrderPickedUp(orderId, msg.sender);\r\n    }\r\n\r\n    function confirmDelivery(uint256 orderId) external {\r\n        require(orders[orderId].deliveryPerson == msg.sender, \"Only assigned delivery person can confirm delivery\");\r\n        require(orders[orderId].status == OrderStatus.InTransit, \"Order is not in transit\");\r\n        orders[orderId].status = OrderStatus.Delivered;\r\n        emit OrderDelivered(orderId);\r\n    }\r\n}\r\n",
  "sourcePath": "D:\\CNCK\\delivery-tracking\\contracts\\DeliveryTracker.sol",
  "compiler": {
    "name": "solc",
    "version": "0.8.0+commit.c7dfd78e.Emscripten.clang"
  },
  "schemaVersion": "3.4.16",
  "updatedAt": "2025-03-12T16:56:35.278Z",
  "networkType": "ethereum",
  "devdoc": {
    "kind": "dev",
    "methods": {},
    "version": 1
  },
  "userdoc": {
    "kind": "user",
    "methods": {},
    "version": 1
  }
}